:020000040800F2
:1000000000000824611F0008C90B0008D70B000876
:10001000DD0B0008E30B0008E90B000800000000FE
:10002000000000000000000000000000D1AA00084D
:10003000EF0B00080000000011AD000879AD0008CA
:10004000B11F0008B11F0008B11F0008B11F000850
:10005000B11F0008B11F0008B11F0008B11F000840
:10006000B11F0008B11F0008B11F0008B11F000830
:10007000B11F0008B11F0008B11F0008B11F000820
:10008000B11F0008B11F0008B11F0008B11F000810
:10009000B11F0008B11F0008B11F0008B11F000800
:1000A000B11F0008FD0B0008110C0008250C00080A
:1000B000390C00084D0C0008B11F0008B11F0008E2
:1000C000B11F0008B11F0008B11F0008B11F0008D0
:1000D000B11F0008610C0008B11F0008B11F000823
:1000E000B11F0008B11F000800000000B11F000888
:1000F000B11F0008B11F0008B11F0008B11F0008A0
:10010000B11F0008B11F0008B11F0008B11F00088F
:10011000B11F0008B11F0008750C0008890C000809
:10012000B11F0008B11F0008B11F0008B11F00086F
:10013000B11F0008B11F0008B11F0008B11F00085F
:1001400000000000000000000000000000000000AF
:10015000B11F0008B11F0008B11F0008B11F00083F
:10016000B11F0008B11F0008B11F0008B11F00082F
:10017000B11F0008B11F0008B11F0008B11F00081F
:10018000B11F0008B11F0008B11F0008B11F00080F
:10019000B11F0008B11F0008B11F0008B11F0008FF
:1001A000B11F0008B11F0008B11F0008B11F0008EF
:1001B000B11F0008B11F0008B11F0008B11F0008DF
:1001C000B11F0008B11F0008B11F0008B11F0008CF
:1001D000B11F0008B11F0008B11F0008B11F0008BF
:1001E000B11F0008B11F0008B11F0008B11F0008AF
:1001F000B11F0008B11F0008B11F0008B11F00089F
:10020000B11F0008B11F0008B11F0008B11F00088E
:10021000B11F0008B11F0008B11F0008B11F00087E
:10022000B11F0008B11F0008B11F00080000000046
:10023000B11F0008B11F000800000000B11F000836
:10024000B11F0008B11F0008B11F0008B11F00084E
:10025000B11F0008B11F0008B11F0008B11F00083E
:10026000B11F0008B11F0008B11F0008B11F00082E
:10027000B11F0008B11F0008B11F000800000000F6
:10028000B11F0008B11F0008B11F000800000000E6
:0802900000000000B11F00088E
:1002A00010B5054C237833B9044B13B10448AFF3B0
:1002B00000800123237010BDE40100240000000031
:1002C000C4DC000808B5034B1BB103490348AFF376
:1002D000008008BD00000000E8010024C4DC000824
:1002E000034613F8012B002AFBD1181A0138704776
:1002F00001F0FF01102A2BDB10F0070F08D010F8D7
:10030000013B013A8B422DD010F0070F42B3F6D1DA
:10031000F0B441EA012141EA014122F007047FF0F3
:1003200000070023F0E80256083C85EA010586EA4A
:10033000010685FA47F5A3FA87F586FA47F6A5FA86
:1003400087F68EB9EED1F0BC01F0FF0102F0070292
:1003500032B110F8013B013A83EA010313B1F8D13D
:100360000020704701387047002D06BF354603381E
:10037000073815F0010F07D1013015F4807F02BF57
:10038000013015F4C03F0130F0BC0138704700BFA8
:1003900053B94AB9002908BF00281CBF4FF0FF31EC
:1003A0004FF0FF3000F072B9ADF1080C6DE904CEEA
:1003B00000F006F8DDF804E0DDE9022304B0704740
:1003C0002DE9F047089E04468846002B4BD18A420F
:1003D000154667D9B2FA82F24AB1C2F1200701FA92
:1003E00002F320FA07F7954047EA030894404FEAE2
:1003F000154E230CB8FBFEF71FFA85FC0EFB178881
:1004000043EA084307FB0CF1994209D9EB1807F1BD
:10041000FF3080F01B81994240F21881023F2B444B
:100420005B1AA4B2B3FBFEF00EFB103344EA0344A4
:1004300000FB0CFCA44509D92C1900F1FF3380F016
:100440000781A44540F2048102382C4440EA074069
:10045000A4EB0C0400271EB1D4400023C6E90043DE
:100460003946BDE8F0878B4209D9002E00F0EB80B9
:100470000027C6E9000138463946BDE8F087B3FADF
:1004800083F7002F47D18B4202D3824200F2FA80D9
:10049000841A61EB030301209846002EE0D0C6E9E0
:1004A0000048DDE702B9FFDEB2FA82F2002A40F02E
:1004B0008F80491B4FEA154E1FFA85F80127B1FBC3
:1004C000FEFC230C0EFB1C1143EA014308FB0CF15C
:1004D000994207D9EB180CF1FF3002D2994200F291
:1004E000CD808446591AA3B2B1FBFEF00EFB101466
:1004F00043EA044408FB00F8A04507D92C1900F191
:10050000FF3302D2A04500F2B6801846A4EB0804DF
:1005100040EA0C409FE7C7F1200CBB4022FA0CFEDA
:100520004EEA030E01FA07F420FA0CF521FA0CF357
:100530004FEA1E482543B3FBF8F92C0C08FB19338E
:100540001FFA8EFA44EA034309FB0AF49C4202FABA
:1005500007F200FA07F10BD91EEB030309F1FF3094
:1005600080F087809C4240F28480A9F102097344A4
:100570001B1BADB2B3FBF8F008FB103345EA034494
:1005800000FB0AFAA24508D91EEB040400F1FF3370
:100590006BD2A24569D90238744440EA0940A0FBF5
:1005A0000289A4EB0A044C45C2464B4654D351D0B1
:1005B000002E69D0B1EB0A0564EB030404FA0CFCCD
:1005C000FD40FC404CEA0505C6E90054002747E71A
:1005D000C2F1200320FA03F7954001FA02F021FA54
:1005E00003F34FEA154E3843010CB3FBFEF71FFA35
:1005F00085F80EFB173341EA034107FB08F38B42F2
:1006000004FA02F407D9691807F1FF3C2FD28B4294
:100610002DD9023F2944CB1A81B2B3FBFEF00EFB69
:10062000103341EA034100FB08F38B4207D96918F4
:1006300000F1FF3C17D28B4215D902382944C91A60
:1006400040EA07473BE73746304609E70746E7E613
:100650001846FBE64145ABD2B8EB020A69EB0E0245
:1006600001381346A4E76046E9E7184695E7674670
:10067000D1E781467CE702382C4447E7ACF1020C15
:100680002B442FE7384608E73746E9E6704700BFB6
:1006900080B500AF0D4B0E4A1A600C4B00221A7148
:1006A0000A4B00225A71094B00225A61074B002263
:1006B0009A61064B01221A62044801F0C3FD034609
:1006C000002B01D000F0EEF900BF80BD644C002487
:1006D000004C025880B485B000AF78607B681B681E
:1006E0000B4A93420ED10B4BD3F8E030094A43F446
:1006F0000023C2F8E030074BD3F8E03003F40023C6
:10070000FB60FB6800BF1437BD465DF8047B704793
:10071000004C02580044025880B500AF044A002142
:10072000044808F01FF80246034B1A6000BF80BD62
:10073000F4DD00083D070008CC4C002480B582B0F1
:1007400000AF7860012008F0B3F8FBE780B58AB00D
:1007500000AF07F1140300221A605A609A60DA6051
:100760001A612A4BD3F8E030284A43F00403C2F858
:10077000E030264BD3F8E03003F004033B613B69E3
:10078000224BD3F8E030214A43F08003C2F8E03036
:100790001E4BD3F8E03003F08003FB60FB681B4B7B
:1007A000D3F8E030194A43F00103C2F8E030174BA8
:1007B000D3F8E03003F00103BB60BB68134BD3F800
:1007C000E030124A43F01003C2F8E0300F4BD3F888
:1007D000E03003F010037B607B6800224FF400518F
:1007E0000B4802F00DFA4FF400537B610123BB610B
:1007F0000023FB6100233B6207F114031946044800
:1008000002F04EF800BF2837BD4680BD00440258B4
:100810000008025880B500AF01F0CCFB00F044F8AE
:10082000FFF794FFFFF734FF00F018FD01F09AF88E
:1008300000F064FB00F010FC00F0AAFC00F0E4F80B
:1008400000F0E8F801221149114806F051FA114B65
:1008500000229A6200BF0F4BDB6903F04003002BBC
:10086000F9D00D4804F068FD0C4B1B680C4AA2FB44
:1008700003239B0C19460B4800F0BFFF07F008FF4D
:10088000FFF74AFF07F038FFFEE700BF8C4C00245B
:100890004C4E002400100140684D0024000000244C
:1008A00083DE1B43ECDC000880B5CCB000AF07F161
:1008B000E4034C22002118460AF02EFD07F1C40380
:1008C0002022002118460AF027FD07F108031846E8
:1008D000BC231A4600210AF01FFD022002F0C4F9D1
:1008E0003B1D00221A60464BDB6A454A23F0010398
:1008F000D362434BDB6A03F001023B1D1A60414B9C
:100900009B69404A43F4404393613E4B9B6903F427
:1009100040423B1D1A603B1D1B6800BF394B9B6961
:1009200003F40053B3F5005FF8D10123C7F8E430B6
:100930004FF48033C7F8E8300223C7F808310223A8
:10094000C7F80C310523C7F810318023C7F81431DC
:100950000223C7F818310223C7F81C310223C7F855
:1009600020310823C7F824310023C7F82831002399
:10097000C7F82C3107F1E403184602F0AFF903463B
:10098000002B01D000F08EF83F23C7F8C4300323BA
:10099000C7F8C8300023C7F8CC300823C7F8D030D8
:1009A0004023C7F8D4304023C7F8D8304FF48063D1
:1009B000C7F8DC304023C7F8E03007F1C403022158
:1009C000184602F09BFD0346002B01D000F06AF8A8
:1009D00007F1080301221A6007F1080300229A6751
:1009E00007F10803184603F04FF90346002B01D026
:1009F00000F058F800BF07F59877BD4680BD00BFEE
:100A0000000400580048025880B500AF01F0F6F924
:100A100000BF80BD80B582B002AF002301932323C5
:100A20000093002380220549054808F0C5FD01F028
:100A3000F5F900F061FE00BFBD4680BD18DD00087D
:100A4000450A000880B582B000AF7860064800F023
:100A5000D4FE4FF40051054802F0EBF84FF4FA7061
:100A600008F0EEFEF2E700BF24DD0008000802589F
:100A700080B582B000AF78607B681B68074A9342FC
:100A800001D101F0D3FA7B681B68054A934201D17A
:100A900000F000FE00BF0837BD4680BD00140040D6
:100AA0000010004080B400AF00BFBD465DF8047B7D
:100AB0007047000080B582B000AF0C4BD3F8F43023
:100AC0000A4A43F00203C2F8F430084BD3F8F4307A
:100AD00003F002037B607B6800220F216FF00100AE
:100AE00001F088FB00BF0837BD4680BD00440258B6
:100AF00080B590B000AF78607B680F2B27D80022BC
:100B00007968372001F076FB372001F08DFB294A08
:100B10007B681360284BD3F8E830274A43F0200362
:100B2000C2F8E830244BD3F8E83003F02003FB6030
:100B3000FB6807F1100207F114031146184603F091
:100B400061F8BB6ABB63BB6B002B06D101E00123DC
:100B50002BE003F02BF8F86304E003F027F80346DA
:100B60005B00FB63FB6B154AA2FB03239B0C013B61
:100B70007B63134B134A1A60114B40F2E732DA6081
:100B80000F4A7B6B53600E4B00221A610C4B002204
:100B90009A600B4804F078FB0346002B04D1084808
:100BA00004F0CAFB034600E0012318464037BD4667
:100BB00080BD00BF080000240044025883DE1B43B0
:100BC000D04C00240014004080B400AF00BFBD46EC
:100BD0005DF8047B704780B400AFFEE780B400AFDF
:100BE000FEE780B400AFFEE780B400AFFEE780B45C
:100BF00000AF00BFBD465DF8047B704780B500AF15
:100C0000024804F087FC00BF80BD00BFB44D002443
:100C100080B500AF024804F07DFC00BF80BD00BF7E
:100C2000B44D002480B500AF024804F073FC00BF4F
:100C300080BD00BFB44D002480B500AF024804F071
:100C400069FC00BF80BD00BF004E002480B500AF2E
:100C5000024804F05FFC00BF80BD00BF1C4D0024B3
:100C600080B500AF024806F01BF900BF80BD00BF91
:100C70004C4E002480B500AF024804F04BFC00BF8E
:100C800080BD00BF684D002480B500AF024804F06D
:100C900041FC00BF80BD00BFD04C002480B586B0B1
:100CA00000AFF860B9607A6000237B610AE0AFF3BF
:100CB00000800146BB685A1CBA60CAB21A707B69D0
:100CC00001337B617A697B689A42F0DB7B68184666
:100CD0001837BD4680BD80B586B000AFF860B960FA
:100CE0007A6000237B6109E0BB685A1CBA601B78FC
:100CF000184600F0AFFD7B6901337B617A697B6840
:100D00009A42F1DB7B6818461837BD4680BD80B437
:100D100083B000AF78604FF0FF3318460C37BD4604
:100D20005DF8047B704780B483B000AF78603960B1
:100D30003B684FF400525A60002318460C37BD46FA
:100D40005DF8047B704780B483B000AF7860012306
:100D500018460C37BD465DF8047B704780B485B0FB
:100D600000AFF860B9607A60002318461437BD46BA
:100D70005DF8047B7047000080B586B000AF7860F6
:100D8000144A154BD31A7B617B693B61134B1B687B
:100D9000002B02D1114B124A1A60104B1A687B6863
:100DA00013443A699A4207D20AF048FA02460C23E1
:100DB00013604FF0FF3309E0084B1B68FB60074BE3
:100DC0001A687B681344054A1360FB681846183795
:100DD000BD4680BD0000082400140000000200246D
:100DE000204F002480B400AF394BD3F88830384A04
:100DF00043F47003C2F88830364B1B6803F00F03CE
:100E0000062B07D8334B1B6823F00F03314A43F0FE
:100E100007031360304B1B682F4A43F00103136034
:100E20002D4B00221A612C4B1A682B492B4B134077
:100E30000B60284B1B6803F00F03072B07D9254BCA
:100E40001B6823F00F03234A43F007031360224B70
:100E500000229A61204B0022DA611F4B00221A62A5
:100E60001D4B1F4A9A621C4B1E4ADA621A4B1E4ADD
:100E70001A63194B00225A63174B1B4A9A63164B8D
:100E80000022DA63144B184A1A64134B00225A6486
:100E9000114B1B68104A23F4802313600E4B002271
:100EA0001A66124B1A68124B1340B3F1005F02D25C
:100EB000104B01221A60104B43F2D2021A60044B0D
:100EC0004FF000629A6000BFBD465DF8047B70473A
:100ED00000ED00E000200052004402587FEDF6EAE9
:100EE000000202020000FF01800201010010005C0C
:100EF0000000FFFF088100510040005280B59AB009
:100F000000AF07F1580300221A605A609A60DA6055
:100F100007F14C0300221A605A609A6007F130030F
:100F200000221A605A609A60DA601A615A619A6106
:100F30003B1D2C22002118460AF0EEF9444B454A8D
:100F40001A60434B9F225A60414B00229A60404BEB
:100F500040F2E732DA603E4B00221A613C4B00223D
:100F60005A613B4B00229A61394804F08DF90346DF
:100F7000002B01D0FFF796FD4FF48053BB6507F1BE
:100F800058031946324804F089FD0346002B01D06E
:100F9000FFF788FD2E4804F005FA0346002B01D028
:100FA000FFF780FD2023FB644FF400133B65002313
:100FB0007B6507F14C031946254805F08FFC034675
:100FC000002B01D0FFF76EFD60233B6340F2F3136B
:100FD0007B630023BB630023FB6300233B6400238C
:100FE0007B640023BB6407F13003082219461848CC
:100FF00004F044FC0346002B01D0FFF753FD00230F
:101000007B600023BB600023FB6000233B61002367
:101010007B614FF40053BB610023FB6100233B6203
:101020004FF000737B620023BB620023FB623B1D19
:101030001946074805F0DAFC0346002B01D0FFF7FC
:1010400031FD034800F006FA00BF6837BD4680BD99
:10105000B44D00240000014080B594B000AF07F10A
:101060003C0300221A605A609A60DA601A6107F144
:10107000300300221A605A609A6007F120030022B0
:101080001A605A609A60DA603B1D00221A605A604A
:101090009A60DA601A615A619A613C4B4FF0804263
:1010A0001A603A4B00225A60384B00229A60374B44
:1010B0000022DA60354B00221A61344B00229A611B
:1010C000324804F0E1F80346002B01D0FFF7EAFCB8
:1010D0002E4804F0C8F90346002B01D0FFF7E2FCCC
:1010E0002A4804F05FF90346002B01D0FFF7DAFC31
:1010F0000623FB6300233B6407F13C0319462348A6
:1011000004F09CFD0346002B01D0FFF7CBFC00232D
:101110003B630023BB6307F1300319461B4805F00E
:10112000DDFB0346002B01D0FFF7BCFC00233B6234
:1011300003237B620023BB620023FB6207F12003D1
:1011400000221946114804F004FB0346002B01D08D
:10115000FFF7A8FC60237B6040F2F313BB60002321
:10116000FB6000237B613B1D04221946074804F005
:1011700085FB0346002B01D0FFF794FC034800F0E9
:1011800069F900BF5037BD4680BD00BF004E002446
:1011900080B588B000AF07F1140300221A605A60CE
:1011A0009A603B1D00221A605A609A60DA60294BEF
:1011B000294A1A60274B00225A60264B00229A6067
:1011C000244B4FF6FF72DA60224B00221A61214B4A
:1011D00000229A611F4804F046F90346002B01D013
:1011E000FFF760FC00237B610023FB6107F1140320
:1011F0001946184805F072FB0346002B01D0FFF793
:1012000051FC00237B600123BB600023FB600A23A9
:101210003B613B1D002219460E4804F09AFA034632
:10122000002B01D0FFF73EFC02237B600223BB6052
:1012300000233B613B1D04221946064804F089FA4D
:101240000346002B01D0FFF72DFC00BF2037BD4621
:1012500080BD00BF1C4D00240004004080B584B058
:1012600000AF3B1D00221A605A609A60144B154A69
:101270001A60134B9F225A60114B00229A60104B48
:1012800040F2E732DA600E4B00229A610C4803F01C
:10129000FBFF0346002B01D0FFF704FC00237B601B
:1012A0000023FB603B1D1946054805F017FB03466C
:1012B000002B01D0FFF7F6FB00BF1037BD4680BD05
:1012C000684D00240010004080B586B000AF786003
:1012D0007B681B68334A934227D1334BD3F8F030F5
:1012E000314A43F00103C2F8F0302F4BD3F8F0300D
:1012F00003F001037B617B6900220621192000F0C5
:1013000079FF192000F090FF002206211A2000F03A
:1013100071FF1A2000F088FF002206211B2000F038
:1013200069FF1B2000F080FF38E07B681B68B3F189
:10133000804F17D11C4BD3F8E8301B4A43F0010310
:10134000C2F8E830184BD3F8E83003F001033B61F2
:101350003B69002206211C2000F04CFF1C2000F0FD
:1013600063FF1BE07B681B68104A934216D10E4B4B
:10137000D3F8E8300C4A43F01003C2F8E8300A4BC7
:10138000D3F8E83003F01003FB60FB68002206216D
:10139000362000F02FFF362000F046FF00BF183740
:1013A000BD4680BD000001400044025800100040CE
:1013B00080B58AB000AF786007F1140300221A608C
:1013C0005A609A60DA601A617B681B681E4A934211
:1013D00035D11E4BD3F8E8301C4A43F00203C2F863
:1013E000E8301A4BD3F8E83003F002033B613B6965
:1013F000164BD3F8E030154A43F00103C2F8E03051
:10140000124BD3F8E03003F00103FB60FB6840238C
:101410007B610223BB610023FB6100233B6202234B
:101420007B6207F114031946094801F039FA0022DA
:1014300006211D2000F0DEFE1D2000F0F5FE00BF9D
:101440002837BD4680BD00BF00040040004402585C
:101450000000025880B58AB000AF786007F114032D
:1014600000221A605A609A60DA601A617B681B6811
:10147000254A934220D1254BD3F8E030234A43F04C
:101480001003C2F8E030214BD3F8E03003F0100332
:101490003B613B694FF400537B610223BB61002336
:1014A000FB6100233B6201237B6207F114031946B1
:1014B000174801F0F5F923E07B681B68B3F1804F12
:1014C0001ED1124BD3F8E030104A43F00103C2F8AA
:1014D000E0300E4BD3F8E03003F00103FB60FB6813
:1014E00002237B610223BB610023FB6100233B627B
:1014F00001237B6207F114031946064801F0D0F975
:1015000000BF2837BD4680BD00000140004402589E
:10151000001002580000025880B483B000AF786019
:101520007B681B68034A934200BF0C37BD465DF8D9
:10153000047B70470000014080B582B000AF786046
:101540007B681B68B3F1804F7B681B68484A9342F5
:1015500040F08A807B681B7F012B49D1454B1B885B
:101560009BB2002B09D17B681B685B6B9AB2424B24
:101570001A80404B01221A8076E03E4B1B889BB2BA
:10158000012B71D17B681B685B6B9AB23B4B1A8055
:101590003A4B1B889AB2384B1B889BB29A420BD9A4
:1015A000364B1B889BB21A46334B1B889BB2D31A0F
:1015B0001A46334B1A600DE02F4B1B889BB21A461C
:1015C0004FF6FF739B1A2D4A128892B213441A46A3
:1015D0002B4B1A6002F0EAFA03465A00284B1B68AC
:1015E000B2FBF3F3274A1360224B00221A803BE040
:1015F0007B681B7F022B37D11E4B1B889BB2012BB4
:1016000032D17B681B689B6B9AB21F4B1A801E4BB2
:101610001B889AB2184B1B889BB29A420BD91A4B63
:101620001B889BB21A46144B1B889BB2D31A1A46CE
:10163000164B1A600DE0104B1B889BB21A464FF6F2
:10164000FF739B1A104A128892B213441A460F4B2A
:101650001A600E4B1B68642202FB03F2084B1B68E6
:10166000B2FBF3F30A4A136000BF0837BD4680BDE2
:101670000004004004020024180200241C0200247C
:1016800014020024080200241A020024100200247C
:101690000C02002480B400AF144B1B889BB2002BBB
:1016A00006D0124B1B889BB2013B9AB20F4B1A809B
:1016B0000F4B1B889BB2002B06D00D4B1B889BB297
:1016C000013B9AB20A4B1A800A4B1B889BB2002B33
:1016D00006D0084B1B889BB2013B9AB2054B1A807F
:1016E00000BFBD465DF8047B704700BF944C0024EA
:1016F000C44C0024544C002480B582B002AF074B88
:101700000093012300224FF47A71054808F028FE67
:101710000246044B1A6000BFBD4680BD2917000871
:1017200038DD0008584C002480B584B000AF7860E4
:101730000023FB60134B1B687A689A421ED1124B40
:1017400000221A60114B186807F10C02002310499F
:1017500007F0FCFB0346012B02D00E4800F04DF8C9
:10176000FB68002B0AD0FB68002B07D00A4B4FF018
:1017700080521A60BFF34F8FBFF36F8F00BF1037D7
:10178000BD4680BD584C0024984C0024604C002479
:10179000B04C002444DD000804ED00E080B582B0C8
:1017A00000AF0346FB7109F059FA00BF074BDB6934
:1017B00003F08003002BF9D0044AFB79936209F00F
:1017C0007BFA00BF0837BD4680BD00BF0010014056
:1017D00080B582B000AF786007E07B681B78184660
:1017E000FFF7DCFF7B6801337B607B681B78002B95
:1017F000F3D100BF0837BD4680BD0FB480B592B0AD
:1018000000AF07F154033B6409F028FA3B463A6CF9
:10181000396D18460AF0AAFB09F04EFA00237B64E2
:1018200009E03A467B6C13441B781846FFF7B6FF75
:101830007B6C01337B643B461846FEF751FD024644
:101840007B6C9A42EDD800BF4837BD46BDE880406A
:1018500004B0704780B582B000AF7860391D4FF694
:10186000FF730122034805F0ADF97B68184608377D
:10187000BD4680BD4C4E002480B400AF064B002214
:101880001A70064B00221A70054B00221A7000BF16
:10189000BD465DF8047B704720030024210300242B
:1018A0002203002480B483B000AF074B1B78002BC9
:1018B00014BF01230023FB71FB7918460C37BD468A
:1018C0005DF8047B704700BF2203002480B483B01E
:1018D00000AF0346FB710C4B1B780133DAB20A4BA5
:1018E0001A700A4B1B781946094AFB795354074B67
:1018F0001B780133DAB2054B1A7000BF0C37BD46B6
:101900005DF8047B704700BF2203002420030024FD
:101910002002002480B483B000AF0F4B1B78002B53
:1019200013D00D4B1B78013BDAB20B4B1A700B4BEB
:101930001B781A460A4B9B5CFB71084B1B780133E2
:10194000DAB2064B1A70FB7900E0FF2318460C3719
:10195000BD465DF8047B7047220300242103002468
:101960002002002480B500AF224B234A1A60214B8D
:101970004FF4E1325A601F4B00229A601D4B002247
:10198000DA601C4B00221A611A4B0C225A61194B67
:1019900000229A61174B0022DA61164B00221A626C
:1019A000144B00225A62134B00229A62114805F030
:1019B000B9F80346002B01D0FFF774F800210D4859
:1019C00006F079FD0346002B01D0FFF76BF80021EC
:1019D000084806F0AEFD0346002B01D0FFF762F881
:1019E000044806F02FFD0346002B01D0FFF75AF8FC
:1019F00000BF80BD4C4E00240010014080B58AB06D
:101A000000AF786007F1140300221A605A609A60F0
:101A1000DA601A617B681B681E4A934236D11E4BFE
:101A2000D3F8F0301C4A43F01003C2F8F0301A4BE0
:101A3000D3F8F03003F010033B613B69164BD3F849
:101A4000E030154A43F00103C2F8E030124BD3F8FE
:101A5000E03003F00103FB60FB684FF4C0637B617F
:101A60000223BB610023FB6100233B6207237B62EF
:101A700007F114031946094800F012FF002206215D
:101A8000252000F0B7FB252000F0CEFB00BF283753
:101A9000BD4680BD001001400044025800000258BD
:101AA00080B582B000AF78607B681B68044A9342BF
:101AB00001D100F007F800BF0837BD4680BD00BF68
:101AC0000010014080B582B000AF00237B600D4B59
:101AD0005B6AFB70FB781846FFF7F8FE7B68002B0B
:101AE00007D0094B4FF080521A60BFF34F8FBFF3FE
:101AF0006F8F01220549064805F0FAF800BF083744
:101B0000BD4680BD0010014004ED00E08C4C002477
:101B10004C4E002480B584B000AF0346FB71AB4B44
:101B20001B78042B00F24F8101A252F823F000BF72
:101B3000451B0008FB1B0008D11C0008231D0008E2
:101B4000BF1D0008FB79023B0B2B2AD801A252F8DB
:101B500023F000BF851B0008A31B0008A31B00087F
:101B6000A31B0008A31B0008A31B00088D1B000873
:101B7000A31B00088D1B0008A31B0008A31B000863
:101B8000951B0008914B02221A7035E08F4B002202
:101B90001A7031E08E480AF0CBF98C4B00221A7093
:101BA0002AE009F075FB0246FB79013313441B78E8
:101BB00003F01703002B0AD109F06AFB0246FB79F8
:101BC000013313441B7803F00803002B13D0814B1F
:101BD00000221A60804B1A687E4B1B68591C7D4896
:101BE00001601344FA791A70FB7918460AF030F94B
:101BF000764B01221A7000BFF9E0FB790A2B04D062
:101C00000D2B02D0082B18D031E0734B1A68714BA2
:101C10001B68134400221A706D480AF089F96F4B53
:101C200001221A706D4B02225A706B4B1B686B4A73
:101C30005360664B04221A7049E0674B1A68654B83
:101C40001B68013B63490B60624B1B681344002215
:101C50001A7063480AF0E4F85E4B1B68002B14BF4F
:101C600001230023DBB21A46584B1A702FE009F00B
:101C70000FFB0246FB79013313441B7803F0170373
:101C8000002B0AD109F004FB0246FB79013313440F
:101C90001B7803F00803002B15D04F4B1A684D4BEF
:101CA0001B68591C4B4801601344FA791A70FB7980
:101CB00018460AF0CDF8474B1B68B3F5087F05D3EB
:101CC00000F0F6F802E000F0F3F8FFE700BF8EE066
:101CD000414B1A683F4B1B68591C3E480160134436
:101CE000FA791A703B4B1B68062B06D13A4B1B68DE
:101CF00004331A883B4B1A8078E03A4B1B88073331
:101D00001A46344B1B689A4203D1304B03221A7097
:101D10006CE0304B1B68B3F5087F67D300F0C8F860
:101D200064E02D4B1A682B4B1B68013B13441B7856
:101D3000FB73FB79032B3DD1274B1A68254B1B689E
:101D4000013B1946104600F0EBF803461A46FB7BB0
:101D500093422FD1214B01221A70204B01225A703D
:101D60001D4B1B681A781D4B1A711B4B1B685A7848
:101D70001A4B5A71184B1B6802331A88174BDA80BA
:101D8000154B1B6804331A88144B1A81124B1868C0
:101D9000114B1B68991D114B1B891A4609F0A3FAB8
:101DA0000D4B1B680D4AD36000F098F8074B0422D6
:101DB0001A701CE000F0A3F800F07AF817E00A4867
:101DC0000AF0B6F813E000F073F810E02C030024DA
:101DD00080DD0008240300242803002430030024AD
:101DE00084DD00084003002488DD000800BF024BAA
:101DF00018461037BD4680BD3003002480B500AFC3
:101E000000220121402006F044FF0246024B1A60E6
:101E1000FFF732FD00BF80BD604C002480B582B06A
:101E200002AF064B01932423009300238022044930
:101E3000044807F0C1FB00BFBD4680BDC04C002474
:101E4000ACDD0008491E000880B584B000AF7860A2
:101E500002E00A2007F0F4FCFFF724FD034683F0BC
:101E60000103DBB2002BF4D108F0F8FEFFF752FDBE
:101E70000346FB7308F020FFFB7B1846FFF74AFE82
:101E8000B860BB681B78002BE6D0BB685B78012B81
:101E900005D0022B05D00548FFF7AFFC02E000BFDC
:101EA00000E000BF00F004F8D6E700BFB4DD000892
:101EB00080B500AF064B00221A60064B00221A7054
:101EC00010220021044809F027FA00BF80BD00BF9E
:101ED000240300242C0300243003002480B582B0A6
:101EE00000AF02233B7106237B710323BB713B1DB3
:101EF0001846FFF76DFC00BF0837BD4680BD80B5B2
:101F000082B000AF02233B7120237B710323BB719E
:101F10003B1D1846FFF75CFC00BF0837BD4680BD7F
:101F200080B485B000AF786039600023FB73002374
:101F3000BB6009E07A68BB6813441A78FB7B1344E2
:101F4000FB73BB680133BB60BA683B689A42F1D34C
:101F5000FB7B18461437BD465DF8047B70470000D4
:101F6000DFF834D0FEF73EFF002103E00B4B5B5857
:101F7000435004310A480B4B42189A42F6D30A4A9E
:101F800002E0002342F8043B084B9A42F9D309F0DF
:101F90005BF9FEF73FFC70470000082414E10008DD
:101FA00000000024E4010024E4010024204F002468
:101FB000FEE7000080B582B000AF032000F00FF90B
:101FC00001F052FC0146154B9B691B0A03F00F03FD
:101FD000134AD35C03F01F0321FA03F37B600F4B1A
:101FE0009B6903F00F030E4AD35C03F01F037A686A
:101FF00022FA03F30B4A13600B4A7B68136000203C
:10200000FEF776FD0346002B01D0012302E0FEF728
:1020100051FD002318460837BD4680BD00440258D4
:1020200018DE0008040000240000002480B400AF83
:10203000064B1B781A46064B1B681344044A136070
:1020400000BFBD465DF8047B704700BF0C00002454
:10205000D84E002480B400AF034B1B681846BD4621
:102060005DF8047B704700BFD84E002480B400AFF9
:10207000034B1B681B0C1846BD465DF8047B70477C
:102080000010005C80B485B000AF78607B6803F01E
:102090000703FB600B4BDB68BB60BA684FF6FF03BE
:1020A0001340BB60FB681A02BB681A43064B13431C
:1020B000BB60044ABB68D36000BF1437BD465DF8FF
:1020C000047B704700ED00E00000FA0580B400AF2B
:1020D000044BDB681B0A03F007031846BD465DF896
:1020E000047B704700ED00E080B483B000AF03468E
:1020F000FB80B7F90630002B0BDBFB8803F01F02D7
:102100000749B7F906305B09012000FA02F241F8ED
:10211000232000BF0C37BD465DF8047B704700BF2D
:1021200000E100E080B483B000AF03463960FB807B
:10213000B7F90630002B0ADB3B68DAB20C49B7F975
:1021400006301201D2B20B4483F800230AE03B6848
:10215000DAB20849FB8803F00F03043B1201D2B244
:102160000B441A7600BF0C37BD465DF8047B704700
:1021700000E100E000ED00E080B489B000AFF8605D
:10218000B9607A60FB6803F00703FB61FB69C3F188
:102190000703042B28BF0423BB61FB690433062B10
:1021A00002D9FB69033B00E000237B614FF0FF3263
:1021B000BB6902FA03F3DA43BB681A407B699A40B1
:1021C0004FF0FF317B6901FA03F3D9437B680B4081
:1021D000134318462437BD465DF8047B704780B52D
:1021E00082B000AF78607868FFF74CFF00BF083717
:1021F000BD4680BD80B586B000AF0346B9607A6049
:10220000FB81FFF763FF78617A68B9687869FFF747
:10221000B3FF0246B7F90E3011461846FFF782FFAA
:1022200000BF1837BD4680BD80B582B000AF034601
:10223000FB80B7F906301846FFF756FF00BF083796
:10224000BD4680BD80B582B000AF78607B68002B52
:1022500001D1012354E07B685B7FDBB2002B05D109
:102260007B6800221A777868FEF734FA7B680222CE
:102270005A777B681B79002B0CD17B681B68224A3C
:102280005A617B681B689A687B681B6822F0180299
:102290009A600CE07B6899687B68DB681A4678680E
:1022A00000F034F80346002B01D0012328E07B68BE
:1022B0005B79002B05D17B681B684FF0FF321A61F8
:1022C00004E07B681B687A6812691A617B681B6886
:1022D0009B6823F060017B685A697B681B680A432E
:1022E0009A607B681B689B6823F080017B689A6911
:1022F0007B681B680A439A607B6801225A77002337
:1023000018460837BD4680BDB71DC10480B487B0EC
:1023100000AFF860B9607A600023FB751F233B6152
:1023200000BF3B695A1E3A61002B09D03B6903F09C
:102330001F03BA6822FA03F303F00103002BF0D065
:102340007B68182B46D801A252F823F0DB23000843
:10235000D5230008D5230008D5230008D52300087D
:10236000D5230008D5230008D5230008C923000879
:10237000D5230008D5230008D5230008D52300085D
:10238000D5230008D5230008D5230008BD23000865
:10239000D5230008D5230008D5230008D52300083D
:1023A000D5230008D5230008D5230008B123000851
:1023B0003B69062B13D90123FB7510E03B69072B02
:1023C0000FD90123FB750CE03B690F2B0BD90123BF
:1023D000FB7508E00123FB7506E000BF04E000BFC9
:1023E00002E000BF00E000BFFB7D002B0DD1FB68C9
:1023F0001B68BA685A61FB681B689B6823F0180168
:10240000FB681B687A680A439A60FB7D18461C3794
:10241000BD465DF8047B704780B584B000AF78603E
:102420007B68002B01D1012305E27B6893F83530EE
:10243000DBB2022B04D07B6880225A650123FAE1CB
:102440007B681B688C4A93424AD07B681B688B4A26
:10245000934245D07B681B68894A934240D07B6891
:102460001B68884A93423BD07B681B68864A93422C
:1024700036D07B681B68854A934231D07B681B68E5
:10248000834A93422CD07B681B68824A934227D0B0
:102490007B681B68804A934222D07B681B687F4A16
:1024A00093421DD07B681B687D4A934218D07B689D
:1024B0001B687C4A934213D07B681B687A4A93421C
:1024C0000ED07B681B68794A934209D07B681B68F1
:1024D000774A934204D07B681B68764A934201D1C5
:1024E000012300E00023002B65D07B68042283F8E1
:1024F00035207B681B68604A93424AD07B681B6822
:102500005E4A934245D07B681B685D4A934240D047
:102510007B681B685B4A93423BD07B681B685A4AC6
:10252000934236D07B681B68584A934231D07B680F
:102530001B68574A93422CD07B681B68554A9342CC
:1025400027D07B681B68544A934222D07B681B6863
:10255000524A93421DD07B681B68514A934218D05F
:102560007B681B684F4A934213D07B681B684E4AB6
:1025700093420ED07B681B684C4A934209D07B681B
:102580001B684B4A934204D07B681B68494A9342BC
:1025900008D17B681B681A687B681B6822F00102FF
:1025A0001A6047E17B681B681A687B681B6822F029
:1025B00001021A603EE17B681B681A687B681B6831
:1025C00022F00E021A607B681B682B4A93424AD0A5
:1025D0007B681B68294A934245D07B681B68284A60
:1025E000934240D07B681B68264A93423BD07B686D
:1025F0001B68254A934236D07B681B68234A934266
:1026000031D07B681B68224A93422CD07B681B68C0
:10261000204A934227D07B681B681F4A934222D0EE
:102620007B681B681D4A93421DD07B681B681C4A4F
:10263000934218D07B681B681A4A934213D07B6878
:102640001B68194A93420ED07B681B68174A934255
:1026500009D07B681B68164A934204D07B681B68CC
:10266000144A934228D17B681B681A687B681B68F0
:1026700022F001021A6027E0100002402800024008
:1026800040000240580002407000024088000240B2
:10269000A0000240B800024010040240280402409A
:1026A0004004024058040240700402408804024082
:1026B000A0040240B80402407B681B681A687B686B
:1026C0001B6822F001021A607B681B685C4A934217
:1026D00072D07B681B685B4A93426DD07B681B6835
:1026E000594A934268D07B681B68584A934263D02A
:1026F0007B681B68564A93425ED07B681B68554ACC
:10270000934259D07B681B68534A934254D07B68EC
:102710001B68524A93424FD07B681B68504A9342D1
:102720004AD07B681B684F4A934245D07B681B6840
:102730004D4A934240D07B681B684C4A93423BD041
:102740007B681B684A4A934236D07B681B68494ABB
:10275000934231D07B681B68474A93422CD07B68F8
:102760001B68464A934227D07B681B68444A9342C1
:1027700022D07B681B68434A93421DD07B681B684C
:10278000414A934218D07B681B68404A934213D059
:102790007B681B683E4A93420ED07B681B683D4AAB
:1027A000934209D07B681B683B4A934204D07B6804
:1027B0001B683A4A934201D1012300E00023002B19
:1027C00028D07B681B6E1A687B681B6E22F48072AF
:1027D0001A607B689B6DFB607B68DB6D03F01F03F9
:1027E00001229A40FB685A607B685B6E7A68926E41
:1027F0005A607B68DB6E002B0CD07B68DB6E1A683E
:102800007B68DB6E22F480721A607B681B6F7A68CB
:10281000526F5A607B68002283F834207B68012263
:1028200083F835207B681B6D002B03D07B681B6D04
:1028300078689847002318461037BD4680BD00BF12
:1028400010000240280002404000024058000240B0
:102850007000024088000240A0000240B800024020
:102860001004024028040240400402405804024080
:102870007004024088040240A0040240B8040240F0
:10288000085402581C5402583054025844540258F8
:10289000585402586C5402588054025894540258A8
:1028A00080B489B000AF786039600023FB61894B48
:1028B0007B6194E13B681A680121FB6901FA03F32B
:1028C00013403B613B69002B00F086813B685B68ED
:1028D000012B0BD03B685B68022B07D03B685B6821
:1028E000112B03D03B685B68122B30D17B689B684F
:1028F000BB61FB695B00032202FA03F3DB43BA69A5
:102900001340BB613B68DA68FB695B0002FA03F3C2
:10291000BA691343BB617B68BA699A607B685B687C
:10292000BB610122FB6902FA03F3DB43BA6913407E
:10293000BB613B685B681B0903F00102FB6902FA9B
:1029400003F3BA691343BB617B68BA695A607B6859
:10295000DB68BB61FB695B00032202FA03F3DB4324
:10296000BA691340BB613B689A68FB695B0002FA75
:1029700003F3BA691343BB617B68BA69DA603B68E9
:102980005B68022B03D03B685B68122B23D1FB6989
:10299000DA087B68083253F82230BB61FB6903F028
:1029A00007039B000F2202FA03F3DB43BA691340CB
:1029B000BB613B681A69FB6903F007039B0002FADD
:1029C00003F3BA691343BB61FB69DA087B68083219
:1029D000B96943F822107B681B68BB61FB695B0027
:1029E000032202FA03F3DB43BA691340BB613B687D
:1029F0005B6803F00302FB695B0002FA03F3BA6948
:102A00001343BB617B68BA691A603B685B6803F07B
:102A10008053002B00F0E0802F4BD3F8F4302E4A87
:102A200043F00203C2F8F4302B4BD3F8F43003F038
:102A30000203FB60FB68294AFB699B08023352F8DA
:102A40002330BB61FB6903F003039B000F2202FAF2
:102A500003F3DB43BA691340BB617B68204A9342AE
:102A600052D07B681F4A934231D07B681E4A934202
:102A70002BD07B681D4A934225D07B681C4A934229
:102A80001FD07B681B4A934219D07B681A4A934235
:102A900013D07B68194A93420DD07B68184A934241
:102AA00007D07B68174A934201D109232DE00A23FE
:102AB0002BE0082329E0072327E0062325E0052350
:102AC00023E0042321E003231FE002231DE0012370
:102AD0001BE000BF8000005800440258000400586A
:102AE000000002580004025800080258000C025866
:102AF000001002580014025800180258001C025816
:102B000000200258002402580023FA6902F0030250
:102B100092009340BA691343BB613849FB699B0833
:102B20000233BA6941F823207B691B68BB613B69AA
:102B3000DB43BA691340BB613B685B6803F48033D5
:102B4000002B03D0BA693B691343BB617B69BA6947
:102B50001A607B695B68BB613B69DB43BA69134000
:102B6000BB613B685B6803F40033002B03D0BA6998
:102B70003B691343BB617B69BA695A604FF0B0434C
:102B80001B68BB613B69DB43BA691340BB613B68AF
:102B90005B6803F48013002B03D0BA693B691343CD
:102BA000BB614FF0B042BB6913604FF0B0435B684C
:102BB000BB613B69DB43BA691340BB613B685B683F
:102BC00003F40013002B03D0BA693B691343BB61C4
:102BD0004FF0B042BB695360FB690133FB613B6856
:102BE0001A68FB6922FA03F3002B7FF463AE00BF7F
:102BF0002437BD465DF8047B704700BF00040058D1
:102C000080B483B000AF78600B467B8013467B7046
:102C10007B78002B03D07A887B689A6103E07B88FD
:102C20001A047B689A6100BF0C37BD465DF8047BCF
:102C3000704780B483B000AF78600B467B807B68C0
:102C40005A697B881A407B889A4204D17B881A048F
:102C50007B689A6102E07A887B689A6100BF0C37D2
:102C6000BD465DF8047B704780B584B000AF7860E6
:102C7000194BDB6803F00403042B0AD0164BDB6806
:102C800003F007037A689A4201D001231FE0002372
:102C90001DE0114BDB6823F007020F497B681343EB
:102CA000CB60FFF7D7F9F86009E0FFF7D3F90246E8
:102CB000FB68D31AB3F57A7F01D9012307E0064BED
:102CC0005B6803F40053B3F5005FEED100231846B0
:102CD0001037BD4680BD00BF0048025880B58CB09B
:102CE00000AF78607B68002B01D10123FFE37B6894
:102CF0001B6803F00103002B00F08780994B1B69D0
:102D000003F03803FB62974B9B6ABB62FB6A102B94
:102D100007D0FB6A182B10D1BB6A03F00303022B08
:102D20000BD1904B1B6803F40033002B6CD07B68F5
:102D30005B68002B68D10123D9E37B685B68B3F53E
:102D4000803F06D1874B1B68864A43F4803313606B
:102D50002EE07B685B68002B0CD1824B1B68814A9C
:102D600023F4803313607F4B1B687E4A23F4802357
:102D700013601DE07B685B68B3F5A02F0CD1794B25
:102D80001B68784A43F480231360764B1B68754AAE
:102D900043F4803313600BE0724B1B68714A23F4D9
:102DA000803313606F4B1B686E4A23F480231360DB
:102DB0007B685B68002B13D0FFF74CF9786208E062
:102DC000FFF748F902467B6AD31A642B01D9032323
:102DD0008DE3644B1B6803F40033002BF0D014E048
:102DE000FFF738F9786208E0FFF734F902467B6AAA
:102DF000D31A642B01D9032379E35A4B1B6803F4DC
:102E00000033002BF0D100E000BF7B681B6803F0AB
:102E10000203002B00F0AE80524B1B6903F0380315
:102E20003B62504B9B6AFB613B6A002B07D03B6ABD
:102E3000182B3AD1FB6903F00303002B35D1494B22
:102E40001B6803F00403002B05D07B68DB68002BB4
:102E500001D101234BE3FFF709F9024641F20303D5
:102E60009A4217D87B681B69402B08D13D4B5B68A1
:102E700023F47C333B4A43F4003353607AE0394B0C
:102E80005B6823F47C327B681B691B033549134361
:102E90004B606FE0334B5B6823F0FE427B681B693D
:102EA0001B06304913434B6064E07B68DB68002BF2
:102EB00045D02C4B1B6823F019027B68DB6829493D
:102EC00013430B60FFF7C6F8786208E0FFF7C2F81B
:102ED00002467B6AD31A022B01D9032307E3214B55
:102EE0001B6803F00403002BF0D0FFF7BFF8024685
:102EF00041F203039A4217D87B681B69402B08D123
:102F0000184B5B6823F47C33164A43F40033536058
:102F100030E0144B5B6823F47C327B681B691B0335
:102F2000104913434B6025E00E4B5B6823F0FE42D3
:102F30007B681B691B060B4913434B601AE0094B66
:102F40001B68084A23F001031360FFF783F87862D7
:102F50000AE0FFF77FF802467B6AD31A022B03D9F7
:102F60000323C4E200440258A44B1B6803F004038B
:102F7000002BEED17B681B6803F01003002B00F0E0
:102F8000A9809E4B1B6903F03803BB619B4B9B6A76
:102F90007B61BB69082B07D0BB69182B3AD17B69D1
:102FA00003F00303012B35D1944B1B6803F48073AA
:102FB000002B05D07B68DB69802B01D0012396E2D2
:102FC000FFF754F8024641F203039A4217D87B6890
:102FD0001B6A202B08D1894B5B6823F0F843874A92
:102FE00043F08043536075E0844B5B6823F0F84204
:102FF0007B681B6A9B06814913434B606AE07F4BE9
:10300000DB6823F07C527B681B6A1B067B491343F9
:10301000CB605FE07B68DB69002B42D0774B1B689D
:10302000764A43F080031360FFF714F8786208E0F3
:10303000FFF710F802467B6AD31A022B01D903234B
:1030400055E26E4B1B6803F48073002BF0D0FFF742
:103050000DF8024641F203039A4217D87B681B6AB7
:10306000202B08D1654B5B6823F0F843634A43F09B
:10307000804353602EE0614B5B6823F0F8427B682D
:103080001B6A9B065D4913434B6023E05B4BDB6887
:1030900023F07C527B681B6A1B0658491343CB60A4
:1030A00018E0564B1B68554A23F080031360FEF767
:1030B000D1FF786208E0FEF7CDFF02467B6AD31AA3
:1030C000022B01D9032312E24C4B1B6803F48073DB
:1030D000002BF0D17B681B6803F00803002B36D06F
:1030E0007B685B69002B19D0444B5B6F434A43F00C
:1030F00001035367FEF7AEFF786208E0FEF7AAFF10
:1031000002467B6AD31A022B01D90323EFE13B4B22
:103110005B6F03F00203002BF0D018E0374B5B6FBE
:10312000364A23F001035367FEF794FF786208E004
:10313000FEF790FF02467B6AD31A022B01D90323C4
:10314000D5E12E4B5B6F03F00203002BF0D17B68BF
:103150001B6803F02003002B36D07B689B69002B93
:1031600019D0264B1B68254A43F480531360FEF7A1
:1031700071FF786208E0FEF76DFF02467B6AD31AA2
:10318000022B01D90323B2E11C4B1B6803F400534B
:10319000002BF0D018E0194B1B68184A23F4805319
:1031A0001360FEF757FF786208E0FEF753FF024610
:1031B0007B6AD31A022B01D9032398E10F4B1B68BA
:1031C00003F40053002BF0D17B681B6803F0040369
:1031D000002B00F085800A4B1B68094A43F480737A
:1031E0001360FEF737FF78620CE0FEF733FF02460C
:1031F0007B6AD31A642B05D9032378E10044025873
:1032000000480258964B1B6803F48073002BECD0E7
:103210007B689B68012B06D1924B1B6F914A43F050
:10322000010313672DE07B689B68002B0CD18D4B4D
:103230001B6F8C4A23F0010313678A4B1B6F894A6B
:1032400023F0040313671CE07B689B68052B0CD1FB
:10325000844B1B6F834A43F004031367814B1B6F3E
:10326000804A43F0010313670BE07E4B1B6F7D4ADE
:1032700023F0010313677B4B1B6F7A4A23F004038F
:1032800013677B689B68002B15D0FEF7E3FE78621E
:103290000AE0FEF7DFFE02467B6AD31A41F288326B
:1032A000934201D9032322E16E4B1B6F03F002030B
:1032B000002BEED014E0FEF7CDFE78620AE0FEF7B8
:1032C000C9FE02467B6AD31A41F28832934201D981
:1032D00003230CE1634B1B6F03F00203002BEED1C1
:1032E0007B685B6A002B00F001815E4B1B6903F079
:1032F0003803182B00F0BC807B685B6A022B40F01F
:103300009580584B1B68574A23F080731360FEF773
:10331000A1FE786208E0FEF79DFE02467B6AD31AA2
:10332000022B01D90323E2E04E4B1B6803F000732C
:10333000002BF0D14B4B9A6A4B4B13407A68916A41
:103340007A68D26A12010A43464913438B627B684A
:103350001B6B013BC3F308027B685B6B013B5B02A9
:103360009BB21A437B689B6B013B1B0403F4FE0377
:103370001A437B68DB6B013B1B0603F0FE433949B4
:1033800013430B63374BDB6A364A23F00103D362E6
:10339000344B5A6B354B13407A68926CD2003149EA
:1033A00013434B632F4BDB6A23F00C027B681B6CCF
:1033B0002C491343CB622B4BDB6A23F002027B6860
:1033C0005B6C28491343CB62264BDB6A254A43F4E6
:1033D0008033D362234BDB6A224A43F40033D36247
:1033E000204BDB6A1F4A43F48023D3621D4BDB6A08
:1033F0001C4A43F00103D3621A4B1B68194A43F07D
:1034000080731360FEF726FE786208E0FEF722FE66
:1034100002467B6AD31A022B01D9032367E0114BC2
:103420001B6803F00073002BF0D05FE00D4B1B68AE
:103430000C4A23F080731360FEF70CFE786208E0FC
:10344000FEF708FE02467B6AD31A022B01D903233A
:103450004DE0044B1B6803F00073002BF0D145E0F6
:1034600000480258004402580CFCFFFF0700FFFF11
:10347000214B9B6A3B61204B1B6BFB607B685B6A4B
:10348000012B31D03B6903F003027B689B6A9A42AF
:103490002AD13B691B0903F03F027B68DB6A9A4231
:1034A00022D1FB68C3F308027B681B6B013B9A4285
:1034B0001AD1FB685B0A03F07F027B685B6B013B00
:1034C0009A4211D1FB681B0C03F07F027B689B6B57
:1034D000013B9A4208D1FB681B0E03F07F027B6818
:1034E000DB6B013B9A4201D0012300E00023184628
:1034F0003037BD4680BD00BF0044025880B586B05D
:1035000000AF786039607B68002B01D101239CE11A
:103510008A4B1B6803F00F033A689A4210D9874B15
:103520001B6823F00F0285493B6813430B60834BF4
:103530001B6803F00F033A689A4201D0012384E12B
:103540007B681B6803F00403002B10D07B681A69AA
:103550007B4B9B6903F070039A4208D9784B9B69B7
:1035600023F070027B681B69754913438B617B688C
:103570001B6803F00803002B10D07B685A69704B5E
:10358000DB6903F070039A4208D96D4BDB6923F0C5
:1035900070027B685B696A491343CB617B681B6877
:1035A00003F01003002B10D07B689A69644BDB6931
:1035B00003F4E0639A4208D9614BDB6923F4E062CB
:1035C0007B689B695E491343CB617B681B6803F092
:1035D0002003002B10D07B68DA69594B1B6A03F07B
:1035E00070039A4208D9564B1B6A23F070027B681D
:1035F000DB69534913430B627B681B6803F00203CA
:10360000002B10D07B68DA684D4B9B6903F00F03E9
:103610009A4208D94A4B9B6923F00F027B68DB680A
:10362000474913438B617B681B6803F00103002B40
:1036300055D0434B9B6923F470627B689B6840497B
:1036400013438B617B685B68022B07D13C4B1B6883
:1036500003F40033002B21D10123F6E07B685B6883
:10366000032B07D1364B1B6803F00073002B15D1D9
:103670000123EAE07B685B68012B07D1304B1B68B4
:1036800003F48073002B09D10123DEE02C4B1B686F
:1036900003F00403002B01D10123D6E0284B1B6962
:1036A00023F007027B685B68254913430B61FEF733
:1036B000D1FC78610AE0FEF7CDFC02467B69D31AA3
:1036C00041F28832934201D90323BEE01C4B1B69AF
:1036D00003F038027B685B68DB009A42EBD17B68C1
:1036E0001B6803F00203002B10D07B68DA68144BD0
:1036F0009B6903F00F039A4208D2114B9B6923F098
:103700000F027B68DB680E4913438B610B4B1B6810
:1037100003F00F033A689A4214D2084B1B6823F057
:103720000F0206493B6813430B60044B1B6803F010
:103730000F033A689A4205D0012386E00020005228
:10374000004402587B681B6803F00403002B10D070
:103750007B681A693F4B9B6903F070039A4208D259
:103760003C4B9B6923F070027B681B69394913430A
:103770008B617B681B6803F00803002B10D07B680B
:103780005A69344BDB6903F070039A4208D2314B1B
:10379000DB6923F070027B685B692E491343CB61C0
:1037A0007B681B6803F01003002B10D07B689A69BC
:1037B000284BDB6903F4E0639A4208D2254BDB69AE
:1037C00023F4E0627B689B6922491343CB617B68E9
:1037D0001B6803F02003002B10D07B68DA691D4BB7
:1037E0001B6A03F070039A4208D21A4B1B6A23F03B
:1037F00070027B68DB69174913430B6200F034F8F1
:103800000146144B9B691B0A03F00F03124AD35C59
:1038100003F01F0321FA03F33B610E4B9B6903F096
:103820000F030D4AD35C03F01F033A6922FA03F336
:103830000A4A13600A4A3B6913600A4B1B68184620
:10384000FDF756F90346FB73FB7B18461837BD4658
:1038500080BD00BF0044025818DE000804000024A8
:10386000000000240800002480B489B000AFAF4BF2
:103870001B6903F03803182B00F24E8101A252F8A5
:1038800023F000BFE9380008193B0008193B000885
:10389000193B0008193B0008193B0008193B0008B8
:1038A000193B00080F390008193B0008193B0008B4
:1038B000193B0008193B0008193B0008193B000898
:1038C000193B000815390008193B0008193B00088E
:1038D000193B0008193B0008193B0008193B000878
:1038E000193B00081B390008904B1B6803F02003AC
:1038F000002B09D08D4B1B68DB0803F003038C4AB7
:1039000022FA03F3BB610AE1894BBB6107E1894BF2
:10391000BB6104E1884BBB6101E1844B9B6A03F00E
:1039200003037B61814B9B6A1B0903F03F033B61EF
:103930007E4BDB6A03F00103FB607C4B5B6BDB08B7
:10394000C3F30C03FA6802FB03F307EE903AF8EEB8
:10395000677AC7ED027A3B69002B00F0DA807B6959
:10396000012B5AD0012B02D3022B78D099E06F4B58
:103970001B6803F02003002B2DD06C4B1B68DB0869
:1039800003F003036A4A22FA03F37B607B6807EEC5
:10399000903AF8EE676A3B6907EE903AF8EE677A7C
:1039A00086EEA77A614B1B6BC3F3080307EE903AD0
:1039B000F8EE676A97ED026ADFED605AC6EE257A87
:1039C00076EEA77AF7EE006A77EEA67A67EE277AA8
:1039D000C7ED077A87E03B6907EE903AF8EE677A21
:1039E000DFED576A86EEA77A504B1B6BC3F30803D3
:1039F00007EE903AF8EE676A97ED026ADFED4F5AEC
:103A0000C6EE257A76EEA77AF7EE006A77EEA67A0A
:103A100067EE277AC7ED077A65E03B6907EE903AD3
:103A2000F8EE677ADFED476A86EEA77A3F4B1B6BAD
:103A3000C3F3080307EE903AF8EE676A97ED026A5F
:103A4000DFED3E5AC6EE257A76EEA77AF7EE006AEB
:103A500077EEA67A67EE277AC7ED077A43E03B69EF
:103A600007EE903AF8EE677ADFED376A86EEA77ACE
:103A70002E4B1B6BC3F3080307EE903AF8EE676A10
:103A800097ED026ADFED2D5AC6EE257A76EEA77A1B
:103A9000F7EE006A77EEA67A67EE277AC7ED077A27
:103AA00021E03B6907EE903AF8EE677ADFED256A90
:103AB00086EEA77A1D4B1B6BC3F3080307EE903A03
:103AC000F8EE676A97ED026ADFED1C5AC6EE257ABA
:103AD00076EEA77AF7EE006A77EEA67A67EE277A97
:103AE000C7ED077A00BF114B1B6B5B0A03F07F0326
:103AF00001333B603B6807EE903AB8EE677AD7ED4A
:103B0000076AC6EE877AFCEEE77A17EE903ABB6159
:103B100005E00023BB6102E0064BBB6100BFBB694F
:103B200018462437BD465DF8047B704700440258B0
:103B30000090D00300093D0040787D010000004660
:103B40000024744C0024744A20BCBE4B80B582B063
:103B500000AFFFF789FE0146104B9B691B0A03F07B
:103B60000F030F4AD35C03F01F0321FA03F37B60BA
:103B70000A4B9B6903F00F03094AD35C03F01F0350
:103B80007A6822FA03F3074A1360074A7B681360D6
:103B9000044B1B6818460837BD4680BD00440258D8
:103BA00018DE0008040000240000002480B500AFE7
:103BB000FFF7CCFF0146064BDB691B0903F0070347
:103BC000044AD35C03F01F0321FA03F3184680BDB7
:103BD0000044025818DE000880B500AFFFF7B6FFBA
:103BE0000146064BDB691B0A03F00703044AD35C5A
:103BF00003F01F0321FA03F3184680BD0044025866
:103C000018DE000880B483B000AF786039607B684C
:103C10003F221A601A4B1B6903F007027B685A6047
:103C2000174B9B6903F470627B689A60144B9B6925
:103C300003F00F027B68DA60114B9B6903F070029E
:103C40007B681A610E4BDB6903F070027B685A6176
:103C50000B4BDB6903F4E0627B689A61084B1B6ADB
:103C600003F070027B68DA61064B1B6803F00F02F9
:103C70003B681A6000BF0C37BD465DF8047B704797
:103C8000004402580020005280B586B000AF786032
:103C90000023FB750023BB757B681B6803F0006382
:103CA000002B3DD07B685B6EB3F5801F13D0B3F55E
:103CB000801F02D8002B07D01FE0B3F5001F13D0E0
:103CC000B3F5401F1CD018E0AF4BDB6AAE4A43F49B
:103CD0000033D36215E07B6804330221184601F0FB
:103CE0006FF90346FB750CE07B682433022118460C
:103CF00001F018FA0346FB7503E00123FB7500E0B1
:103D000000BFFB7D002B09D19F4B1B6D23F440129C
:103D10007B685B6E9C4913430B6501E0FB7DBB75C3
:103D20007B681B6803F48073002B3DD07B685B6D60
:103D3000042B26D801A252F823F000BF513D000801
:103D40005F3D0008713D0008893D0008893D00087D
:103D50008D4BDB6A8C4A43F40033D36215E07B68F9
:103D600004330021184601F02BF90346FB750CE0E3
:103D70007B6824330021184601F0D4F90346FB7513
:103D800003E00123FB7500E000BFFB7D002B09D1A0
:103D90007D4B1B6D23F007027B685B6D7A491343F3
:103DA0000B6501E0FB7DBB757B681B6803F400734A
:103DB000002B3ED07B689B6D802B1CD0802B04D8C1
:103DC000002B08D0402B0DD01EE0C02B1FD0B3F528
:103DD000807F1ED018E06C4BDB6A6B4A43F40033E3
:103DE000D36217E07B6804330021184601F0E8F83D
:103DF0000346FB750EE07B6824330021184601F072
:103E000091F90346FB7505E00123FB7502E000BF55
:103E100000E000BFFB7D002B09D15B4B1B6D23F441
:103E2000E0727B689B6D584913430B6501E0FB7D95
:103E3000BB757B681B6803F48063002B44D07B68F0
:103E4000D3F8A430B3F5800F1FD0B3F5800F05D899
:103E5000002B0AD0B3F5001F0ED01FE0B3F5C00F42
:103E60001FD0B3F5000F1ED018E0474BDB6A464A5F
:103E700043F40033D36217E07B6804330021184613
:103E800001F09EF80346FB750EE07B6824330021A9
:103E9000184601F047F90346FB7505E00123FB7561
:103EA00002E000BF00E000BFFB7D002B0AD1364BD3
:103EB0009B6D23F460027B68D3F8A430324913432E
:103EC0008B6501E0FB7DBB757B681B6803F40063B9
:103ED000002B44D07B68D3F8A830B3F1007F1FD00B
:103EE000B3F1007F05D8002B0AD0B3F1807F0ED04C
:103EF0001FE0B3F1407F1FD0B3F1806F1ED018E0F8
:103F0000214BDB6A204A43F40033D36217E07B681D
:103F100004330021184601F053F80346FB750EE008
:103F20007B6824330021184601F0FCF80346FB753A
:103F300005E00123FB7502E000BF00E000BFFB7D50
:103F4000002B0AD1104B9B6D23F0E0627B68D3F805
:103F5000A8300D4913438B6501E0FB7DBB757B6881
:103F60001B6803F00073002B35D07B689B6C102B13
:103F70000CD0102B02D8002B1BD017E0202B0CD01C
:103F8000302B18D012E000BF00440258AF4BDB6A60
:103F9000AE4A43F40033D3620EE07B68043302215F
:103FA000184601F00DF80346FB7505E00123FB758B
:103FB00002E000BF00E000BFFB7D002B09D1A34B56
:103FC000DB6C23F030027B689B6CA0491343CB640D
:103FD00001E0FB7DBB757B681B6803F48053002BFD
:103FE00042D07B68DB6DB3F5005F1FD0B3F5005F97
:103FF00005D8002B0AD0B3F5805F0ED01FE0B3F5D3
:10400000405F1FD0B3F5804F1ED018E08F4BDB6AA6
:104010008E4A43F40033D36217E07B6804330021F7
:10402000184600F0CDFF0346FB750EE07B68243395
:104030000021184601F076F80346FB7505E00123E0
:10404000FB7502E000BF00E000BFFB7D002B09D143
:104050007E4B1B6D23F4E0427B68DB6D7B49134391
:104060000B6501E0FB7DBB757B681B6803F40053A7
:10407000002B42D07B681B6EB3F5003F1BD0B3F51D
:10408000003F05D8002B22D0B3F5803F0AD01BE0BB
:10409000B3F5802F1DD0B3F5A02F1CD0B3F5403F52
:1040A0001BD011E07B6804330121184600F088FF23
:1040B0000346FB7512E07B6824330121184601F0AA
:1040C00031F80346FB7509E00123FB7506E000BFEC
:1040D00004E000BF02E000BF00E000BFFB7D002B5A
:1040E00009D15A4B1B6D23F4E0227B681B6E5749A4
:1040F00013430B6501E0FB7DBB757B681B6803F414
:104100008043002B44D07B68D3F8AC30B3F1005F20
:104110001BD0B3F1005F05D8002B22D0B3F1805F34
:104120000AD01BE0B3F1804F1DD0B3F1A04F1CD0DB
:10413000B3F1405F1BD011E07B68043301211846C6
:1041400000F03EFF0346FB7512E07B68243301213B
:10415000184600F0E7FF0346FB7509E00123FB75F5
:1041600006E000BF04E000BF02E000BF00E000BFC7
:10417000FB7D002B0AD1354B9B6D23F0E0427B6821
:10418000D3F8AC30314913438B6501E0FB7DBB753F
:104190007B681B6803F40043002B2DD07B68DB6E2B
:1041A000B3F1805F05D0B3F1005F09D0002B13D0CD
:1041B0000FE0264BDB6A254A43F40033D3620CE060
:1041C0007B6804330121184600F0FAFE0346FB75B4
:1041D00003E00123FB7500E000BFFB7D002B09D14C
:1041E0001A4B1B6D23F040527B68DB6E174913435B
:1041F0000B6501E0FB7DBB757B681B6803F080737A
:10420000002B35D07B685B6C032B1BD801A252F8C6
:1042100023F000BF51420008254200083342000845
:1042200051420008094BDB6A084A43F40033D36269
:104230000FE07B6804330221184600F0C1FE0346FC
:10424000FB7506E00123FB7503E000BF0044025844
:1042500000BFFB7D002B09D1BA4BDB6C23F00302BE
:104260007B685B6CB7491343CB6401E0FB7DBB7596
:104270007B681B6803F48003002B00F08680B24B40
:104280001B68B14A43F480731360FDF7E3FE3861A5
:1042900009E0FDF7DFFE02463B69D31A642B02D921
:1042A0000323FB7505E0A84B1B6803F48073002B08
:1042B000EFD0FB7D002B66D1A24B1A6F7B68D3F841
:1042C000B030534003F44073002B13D09D4B1B6F51
:1042D00023F44073FB609B4B1B6F9A4A43F480337B
:1042E0001367984B1B6F974A23F480331367954AE3
:1042F000FB6813677B68D3F8B030B3F5807F15D1C6
:10430000FDF7A8FE38610BE0FDF7A4FE02463B690D
:10431000D31A41F28832934202D90323FB7505E098
:10432000884B1B6F03F00203002BEDD0FB7D002BAD
:1043300026D17B68D3F8B03003F44073B3F5407FE7
:104340000DD1804B1B6923F47C527B68D3F8B030CD
:1043500019097E4B0B407B4913430B6105E0794BF8
:104360001B69784A23F47C531361764B1A6F7B6880
:10437000D3F8B030C3F30B03724913430B6704E067
:10438000FB7DBB7501E0FB7DBB757B681B6803F0A3
:104390000103002B7DD07B689B6F282B66D801A280
:1043A00052F823F0734400086D4400086D4400087F
:1043B0006D4400086D4400086D4400086D44000819
:1043C0006D440008494400086D4400086D4400082D
:1043D0006D4400086D4400086D4400086D440008F9
:1043E0006D4400085B4400086D4400086D440008FB
:1043F0006D4400086D4400086D4400086D440008D9
:104400006D440008734400086D4400086D440008C2
:104410006D4400086D4400086D4400086D440008B8
:104420006D440008734400086D4400086D440008A2
:104430006D4400086D4400086D4400086D44000898
:104440006D440008734400087B680433012118465A
:1044500000F0B6FD0346FB750CE07B6824330121B8
:10446000184600F05FFE0346FB7503E00123FB7571
:1044700000E000BFFB7D002B09D1324B5B6D23F0C8
:1044800038027B689B6F2F4913434B6501E0FB7D2E
:10449000BB757B681B6803F00203002B37D07B6879
:1044A0005B6F052B20D801A252F823F0EF440008DF
:1044B000C5440008D7440008EF440008EF44000852
:1044C000EF4400087B6804330121184600F078FDB2
:1044D0000346FB750CE07B6824330121184600F08D
:1044E00021FE0346FB7503E00123FB7500E000BFDE
:1044F000FB7D002B09D1134B5B6D23F007027B681A
:104500005B6F104913434B6501E0FB7DBB757B6816
:104510001B6803F00403002B40D07B68D3F8903075
:10452000052B27D801A252F823F000BF7B450008D5
:1045300051450008634500087B4500087B4500089D
:104540007B4500080044025800480258CFFFFF0096
:104550007B6804330121184600F032FD0346FB75E9
:104560000CE07B6824330121184600F0DBFD034694
:10457000FB7503E00123FB7500E000BFFB7D002B12
:104580000AD1B24B9B6D23F007027B68D3F89030C1
:10459000AE4913438B6501E0FB7DBB757B681B68EF
:1045A00003F02003002B44D07B68D3F88C30B3F1A8
:1045B000005F1BD0B3F1005F05D8002B22D0B3F110
:1045C000805F0AD01BE0B3F1804F1DD0B3F1A04F44
:1045D0001CD0B3F1405F1BD011E07B680433002195
:1045E000184600F0EDFC0346FB7512E07B682433AF
:1045F0000221184600F096FD0346FB7509E00123F1
:10460000FB7506E000BF04E000BF02E000BF00E071
:1046100000BFFB7D002B0AD18C4B5B6D23F0E04289
:104620007B68D3F88C30894913434B6501E0FB7DEF
:10463000BB757B681B6803F04003002B44D07B688C
:10464000D3F89830B3F5006F1BD0B3F5006F05D8E1
:10465000002B22D0B3F5806F0AD01BE0B3F5805F4A
:104660001DD0B3F5A05F1CD0B3F5406F1BD011E097
:104670007B6804330021184600F0A2FC0346FB755A
:1046800012E07B6824330221184600F04BFD0346FC
:10469000FB7509E00123FB7506E000BF04E000BFE5
:1046A00002E000BF00E000BFFB7D002B0AD1674B9A
:1046B0009B6D23F4E0527B68D3F898306349134331
:1046C0008B6501E0FB7DBB757B681B6803F0800395
:1046D000002B44D07B68D3F89C30B3F5804F1BD0BF
:1046E000B3F5804F05D8002B22D0B3F5005F0AD078
:1046F0001BE0B3F5004F1DD0B3F5204F1CD0B3F530
:10470000C04F1BD011E07B6804330021184600F035
:1047100057FC0346FB7512E07B68243302211846E0
:1047200000F000FD0346FB7509E00123FB7506E080
:1047300000BF04E000BF02E000BF00E000BFFB7D5F
:10474000002B0AD1414B9B6D23F460427B68D3F868
:104750009C303E4913438B6501E0FB7DBB757B6854
:104760001B6803F00803002B1AD07B68D3F8803055
:10477000B3F5805F0AD17B6824330221184600F02C
:10478000D1FC0346002B01D00123BB752F4B5B6D81
:1047900023F440527B68D3F880302C4913434B6597
:1047A0007B681B6803F01003002B1AD07B68D3F8DA
:1047B0009430B3F5807F0AD17B68243302211846F8
:1047C00000F0B0FC0346002B01D00123BB751F4B4A
:1047D0009B6D23F440727B68D3F894301B491343DC
:1047E0008B657B681B6803F40023002B32D07B6849
:1047F000D3F8A030B3F5803F0DD0B3F5003F16D00D
:10480000002B11D17B6804330021184600F0D8FB3F
:104810000346FB750CE07B6824330221184600F048
:1048200081FC0346FB7503E00123FB7500E000BF3C
:10483000FB7D002B0CD1054B9B6D23F440327B6834
:10484000D3F8A030014913438B6503E000440258BC
:10485000FB7DBB757B681B6803F48023002B2FD086
:104860007B68D3F88430B3F5001F0CD0B3F5401F3C
:1048700015D0B3F5801F0FD1794BDB6A784A43F42A
:104880000033D3620CE07B6824330121184600F02A
:1048900049FC0346FB7503E00123FB7500E000BF04
:1048A000FB7D002B0AD16E4B5B6D23F440127B68BD
:1048B000D3F884306A4913434B6501E0FB7DBB7537
:1048C0007B681B6803F48033002B29D07B68DB6C8A
:1048D000002B03D0B3F5803F07D00FE0604BDB6ABD
:1048E0005F4A43F40033D3620BE07B680433022158
:1048F000184600F065FB0346FB7502E00123FB75DB
:1049000000BFFB7D002B09D1554BDB6C23F48032BB
:104910007B68DB6C52491343CB6401E0FB7DBB75C4
:104920007B681B6803F00053002B0AD07B6824339C
:104930000221184600F0F6FB0346002B01D00123AC
:10494000BB757B681B6803F40033002B2FD07B689A
:10495000DB6FB3F5807F0CD0B3F5807F02D8002BDE
:1049600011D00DE0B3F5007F0FD0B3F5407F0ED02E
:1049700006E03B4BDB6A3A4A43F40033D36207E07C
:104980000123FB7504E000BF02E000BF00E000BFB0
:10499000FB7D002B09D1324B5B6D23F440727B68A9
:1049A000DB6F2F4913434B6501E0FB7DBB757B68D3
:1049B0001B6803F48013002B08D0294B1B6D23F0D8
:1049C00000427B681B6F264913430B657B681B689D
:1049D00003F08053002B09D0214B1B6923F4804244
:1049E0007B68D3F8B4301E4913430B617B681B68A6
:1049F00003F40013002B08D0194B1B6D23F08072B9
:104A00007B689B6E164913430B657B681B6803F03C
:104A10008043002B0DD0124B1B69114A23F4004335
:104A200013610F4B1A697B68D3F8B8300C491343F4
:104A30000B617B681B68002B08DA094BDB6C23F0E9
:104A400040527B681B6D06491343CB64BB7D002B32
:104A500001D1002300E0012318461837BD4680BD70
:104A60000044025880B500AFFFF770F80146064BCE
:104A70001B6A1B0903F00703044AD35C03F01F03FE
:104A800021FA03F3184680BD0044025818DE0008DE
:104A900080B489B000AF78609D4B9B6A03F003033C
:104AA000BB619B4B9B6A1B0B03F03F037B61984BE5
:104AB000DB6A1B0903F001033B61954BDB6BDB08F1
:104AC000C3F30C033A6902FB03F307EE903AF8EEE6
:104AD000677AC7ED037A7B69002B00F00A81BB6916
:104AE000012B5AD0012B02D3022B78D099E0884BAE
:104AF0001B6803F02003002B2DD0854B1B68DB08BF
:104B000003F00303834A22FA03F3BB60BB6807EE9A
:104B1000903AF8EE676A7B6907EE903AF8EE677AAA
:104B200086EEA77A7A4B9B6BC3F3080307EE903AA5
:104B3000F8EE676A97ED036ADFED775AC6EE257ADD
:104B400076EEA77AF7EE006A77EEA67A67EE277A16
:104B5000C7ED077A87E07B6907EE903AF8EE677A4F
:104B6000DFED6E6A86EEA77A694B9B6BC3F3080391
:104B700007EE903AF8EE676A97ED036ADFED665A42
:104B8000C6EE257A76EEA77AF7EE006A77EEA67A79
:104B900067EE277AC7ED077A65E07B6907EE903A02
:104BA000F8EE677ADFED5E6A86EEA77A584B9B6B6C
:104BB000C3F3080307EE903AF8EE676A97ED036ACD
:104BC000DFED555AC6EE257A76EEA77AF7EE006A43
:104BD00077EEA67A67EE277AC7ED077A43E07B691E
:104BE00007EE903AF8EE677ADFED4E6A86EEA77A26
:104BF000474B9B6BC3F3080307EE903AF8EE676AE6
:104C000097ED036ADFED445AC6EE257A76EEA77A71
:104C1000F7EE006A77EEA67A67EE277AC7ED077A95
:104C200021E07B6907EE903AF8EE677ADFED3C6AA7
:104C300086EEA77A364B9B6BC3F3080307EE903AD8
:104C4000F8EE676A97ED036ADFED335AC6EE257A10
:104C500076EEA77AF7EE006A77EEA67A67EE277A05
:104C6000C7ED077A00BF2A4B9B6B5B0A03F07F03FB
:104C700007EE903AF8EE677AB7EE007A37EE877A69
:104C8000D7ED076AC6EE877AFCEEE77A17EE902A30
:104C90007B681A601E4B9B6B1B0C03F07F0307EEB7
:104CA000903AF8EE677AB7EE007A37EE877AD7ED6A
:104CB000076AC6EE877AFCEEE77A17EE902A7B68E1
:104CC0005A60134B9B6B1B0E03F07F0307EE903A69
:104CD000F8EE677AB7EE007A37EE877AD7ED076A93
:104CE000C6EE877AFCEEE77A17EE902A7B689A6028
:104CF00008E07B6800221A607B6800225A607B68AB
:104D000000229A6000BF2437BD465DF8047B7047DF
:104D1000004402580090D003000000460024744C68
:104D20000024744A20BCBE4B80B489B000AF7860C8
:104D30009D4B9B6A03F00303BB619B4B9B6A1B0D5E
:104D400003F03F037B61984BDB6A1B0A03F001030E
:104D50003B61954B5B6CDB08C3F30C033A6902FBC8
:104D600003F307EE903AF8EE677AC7ED037A7B69B2
:104D7000002B00F00A81BB69012B5AD0012B02D312
:104D8000022B78D099E0884B1B6803F02003002B9E
:104D90002DD0854B1B68DB0803F00303834A22FAFE
:104DA00003F3BB60BB6807EE903AF8EE676A7B6975
:104DB00007EE903AF8EE677A86EEA77A7A4B1B6C8C
:104DC000C3F3080307EE903AF8EE676A97ED036ABB
:104DD000DFED775AC6EE257A76EEA77AF7EE006A0F
:104DE00077EEA67A67EE277AC7ED077A87E07B69C8
:104DF00007EE903AF8EE677ADFED6E6A86EEA77AF4
:104E0000694B1B6CC3F3080307EE903AF8EE676A30
:104E100097ED036ADFED665AC6EE257A76EEA77A3D
:104E2000F7EE006A77EEA67A67EE277AC7ED077A83
:104E300065E07B6907EE903AF8EE677ADFED5E6A2F
:104E400086EEA77A584B1B6CC3F3080307EE903A23
:104E5000F8EE676A97ED036ADFED555AC6EE257ADC
:104E600076EEA77AF7EE006A77EEA67A67EE277AF3
:104E7000C7ED077A43E07B6907EE903AF8EE677A70
:104E8000DFED4E6A86EEA77A474B1B6CC3F308032F
:104E900007EE903AF8EE676A97ED036ADFED445A41
:104EA000C6EE257A76EEA77AF7EE006A77EEA67A56
:104EB00067EE277AC7ED077A21E07B6907EE903A23
:104EC000F8EE677ADFED3C6A86EEA77A364B1B6C0C
:104ED000C3F3080307EE903AF8EE676A97ED036AAA
:104EE000DFED335AC6EE257A76EEA77AF7EE006A42
:104EF00077EEA67A67EE277AC7ED077A00BF2A4BCE
:104F00001B6C5B0A03F07F0307EE903AF8EE677ABA
:104F1000B7EE007A37EE877AD7ED076AC6EE877A62
:104F2000FCEEE77A17EE902A7B681A601E4B1B6C2A
:104F30001B0C03F07F0307EE903AF8EE677AB7EEAA
:104F4000007A37EE877AD7ED076AC6EE877AFCEEED
:104F5000E77A17EE902A7B685A60134B1B6C1B0E86
:104F600003F07F0307EE903AF8EE677AB7EE007A27
:104F700037EE877AD7ED076AC6EE877AFCEEE77AD6
:104F800017EE902A7B689A6008E07B6800221A601E
:104F90007B6800225A607B6800229A6000BF243739
:104FA000BD465DF8047B7047004402580090D00372
:104FB000000000460024744C0024744A20BCBE4B00
:104FC00080B584B000AF786039600023FB73534B29
:104FD0009B6A03F00303032B01D1012399E04F4B9C
:104FE0001B684E4A23F080631360FDF733F8B86006
:104FF00008E0FDF72FF80246BB68D31A022B01D94F
:10500000032386E0454B1B6803F00063002BF0D1BF
:10501000424B9B6A23F47C327B681B681B033F492D
:1050200013438B627B685B68013BC3F308027B68B8
:105030009B68013B5B029BB21A437B68DB68013BC8
:105040001B0403F4FE031A437B681B69013B1B0628
:1050500003F0FE43314913438B63304BDB6A23F08B
:10506000C0027B685B692D491343CB622B4BDB6A23
:1050700023F020027B689B6928491343CB62274BAE
:10508000DB6A264A23F01003D362244BDA6B244BED
:1050900013407A68D269D20020491343CB631F4B77
:1050A000DB6A1E4A43F01003D3623B68002B06D133
:1050B0001A4BDB6A194A43F40023D3620FE03B68C2
:1050C000012B06D1154BDB6A144A43F48013D362DB
:1050D00005E0124BDB6A114A43F40013D3620F4B15
:1050E0001B680E4A43F080631360FCF7B3FFB8609F
:1050F00008E0FCF7AFFF0246BB68D31A022B01D9C8
:10510000032306E0054B1B6803F00063002BF0D07F
:10511000FB7B18461037BD4680BD00BF00440258D7
:105120000700FFFF80B584B000AF786039600023CE
:10513000FB73534B9B6A03F00303032B01D1012341
:1051400099E04F4B1B684E4A23F080531360FCF7E5
:1051500081FFB86008E0FCF77DFF0246BB68D31A08
:10516000022B01D9032386E0454B1B6803F0005353
:10517000002BF0D1424B9B6A23F07C727B681B684A
:105180001B053F4913438B627B685B68013BC3F39C
:1051900008027B689B68013B5B029BB21A437B68F9
:1051A000DB68013B1B0403F4FE031A437B681B69A5
:1051B000013B1B0603F0FE43314913430B64304BA4
:1051C000DB6A23F440627B685B692D491343CB6241
:1051D0002B4BDB6A23F400727B689B6928491343DD
:1051E000CB62274BDB6A264A23F48073D362244BBD
:1051F0005A6C244B13407A68D269D2002049134379
:105200004B641F4BDB6A1E4A43F48073D3623B68D6
:10521000002B06D11A4BDB6A194A43F48003D36290
:105220000FE03B68012B06D1154BDB6A144A43F4AF
:105230000003D36205E0124BDB6A114A43F080732E
:10524000D3620F4B1B680E4A43F080531360FCF788
:1052500001FFB86008E0FCF7FDFE0246BB68D31A08
:10526000022B01D9032306E0054B1B6803F0005312
:10527000002BF0D0FB7B18461037BD4680BD00BF29
:10528000004402580700FFFF80B582B000AF78608D
:105290007B68002B01D1012349E07B6893F83D3006
:1052A000DBB2002B06D17B68002283F83C207868B3
:1052B000FCF70AF87B68022283F83D207B681A68B5
:1052C0007B6804331946104600F00EFD7B6801220E
:1052D00083F848207B68012283F83E207B68012206
:1052E00083F83F207B68012283F840207B680122FD
:1052F00083F841207B68012283F842207B680122E9
:1053000083F843207B68012283F844207B680122D4
:1053100083F845207B68012283F846207B680122C0
:1053200083F847207B68012283F83D20002318463C
:105330000837BD4680BD000080B485B000AF7860FE
:105340007B6893F83D30DBB2012B01D0012321E0D3
:105350007B68022283F83D207B681B68DA687B68E3
:105360001B6842F00102DA607B681B689A680C4B8C
:105370001340FB60FB68062B0BD0FB68B3F5803F46
:1053800007D07B681B681A687B681B6842F00102C3
:105390001A60002318461437BD465DF8047B704739
:1053A0000700010080B582B000AF78607B68002BF9
:1053B00001D1012349E07B6893F83D30DBB2002B3B
:1053C00006D17B68002283F83C20786800F041F821
:1053D0007B68022283F83D207B681A687B6804336F
:1053E0001946104600F080FC7B68012283F84820B3
:1053F0007B68012283F83E207B68012283F83F20EE
:105400007B68012283F840207B68012283F84120D9
:105410007B68012283F842207B68012283F84320C5
:105420007B68012283F844207B68012283F84520B1
:105430007B68012283F846207B68012283F847209D
:105440007B68012283F83D20002318460837BD46BB
:1054500080BD80B483B000AF786000BF0C37BD461C
:105460005DF8047B704780B582B000AF78607B68E0
:10547000002B01D1012349E07B6893F83D30DBB27A
:10548000002B06D17B68002283F83C207868FBF76C
:105490008FFF7B68022283F83D207B681A687B6857
:1054A00004331946104600F01FFC7B68012283F884
:1054B00048207B68012283F83E207B68012283F824
:1054C0003F207B68012283F840207B68012283F81B
:1054D00041207B68012283F842207B68012283F807
:1054E00043207B68012283F844207B68012283F8F3
:1054F00045207B68012283F846207B68012283F8DF
:1055000047207B68012283F83D2000231846083796
:10551000BD4680BD80B582B000AF78607B681B68F7
:105520001B6903F00203022B22D17B681B68DB6836
:1055300003F00203022B1BD17B681B686FF0020291
:105540001A617B6801221A777B681B689B6903F0EC
:105550000303002B03D07868FBF7EEFF05E07868C3
:1055600000F0AEFB7868FBF7D7FF7B6800221A7764
:105570007B681B681B6903F00403042B22D17B6842
:105580001B68DB6803F00403042B1BD17B681B68DA
:105590006FF004021A617B6802221A777B681B682D
:1055A0009B6903F44073002B03D07868FBF7C4FFBA
:1055B00005E0786800F084FB7868FBF7ADFF7B6856
:1055C00000221A777B681B681B6903F00803082B0D
:1055D00022D17B681B68DB6803F00803082B1BD112
:1055E0007B681B686FF008021A617B6804221A77D7
:1055F0007B681B68DB6903F00303002B03D078682A
:10560000FBF79AFF05E0786800F05AFB7868FBF733
:1056100083FF7B6800221A777B681B681B6903F095
:105620001003102B22D17B681B68DB6803F010038A
:10563000102B1BD17B681B686FF010021A617B680E
:1056400008221A777B681B68DB6903F44073002B20
:1056500003D07868FBF770FF05E0786800F030FB56
:105660007868FBF759FF7B6800221A777B681B6814
:105670001B6903F00103012B0ED17B681B68DB68FB
:1056800003F00103012B07D17B681B686FF0010257
:105690001A617868FBF7ECF97B681B681B6903F0FB
:1056A0008003802B0ED17B681B68DB6803F08003CE
:1056B000802B07D17B681B686FF080021A617868C5
:1056C00001F01CFA7B681B681B6903F48073B3F557
:1056D000807F0ED17B681B68DB6803F08003802B22
:1056E00007D17B681B686FF480721A61786801F0DB
:1056F0000FFA7B681B681B6903F04003402B0ED137
:105700007B681B68DB6803F04003402B07D17B6894
:105710001B686FF040021A61786800F0DBFA7B6862
:105720001B681B6903F02003202B0ED17B681B68CC
:10573000DB6803F02003202B07D17B681B686FF028
:1057400020021A61786801F0CFF900BF0837BD4622
:1057500080BD80B584B000AFF860B9607A60FB6846
:1057600093F83C30012B01D1022382E0FB68012237
:1057700083F83C207B68002B1BD1FB681868BB6852
:105780001968BB685A68BB68DB6800F0DFFEFB681D
:105790001B689A69FB681B6822F00C029A61FB681F
:1057A0001B689969BB689A68FB681B680A439A6121
:1057B0005AE07B68042B1CD1FB681868BB68196829
:1057C000BB685A68BB68DB6800F063FFFB681B6856
:1057D0009A69FB681B6822F440629A61FB681B6847
:1057E0009969BB689B681A02FB681B680A439A6147
:1057F0003AE07B68082B1BD1FB681868BB68196806
:10580000BB685A68BB68DB6800F0B0FFFB681B68C8
:10581000DA69FB681B6822F00C02DA61FB681B681E
:10582000D969BB689A68FB681B680A43DA611BE0A8
:10583000FB681868BB681968BB685A68BB68DB6896
:1058400000F0D0FFFB681B68DA69FB681B6822F474
:105850004062DA61FB681B68D969BB689B681A0201
:10586000FB681B680A43DA61FB68002283F83C206E
:10587000002318461037BD4680BD000080B584B0B7
:1058800000AFF860B9607A60FB6893F83C30012B98
:1058900001D10223FDE0FB68012283F83C207B68F4
:1058A000142B00F2F08001A252F823F001590008F5
:1058B000875A0008875A0008875A0008415900088B
:1058C000875A0008875A0008875A00088359000839
:1058D000875A0008875A0008875A0008C3590008E9
:1058E000875A0008875A0008875A0008055A000896
:1058F000875A0008875A0008875A0008455A000846
:10590000FB681B68B968184600F088FAFB681B68DA
:105910009A69FB681B6842F008029A61FB681B6881
:105920009A69FB681B6822F004029A61FB681B6895
:105930009969BB681A69FB681B680A439A61A3E00E
:10594000FB681B68B968184600F0F8FAFB681B682A
:105950009A69FB681B6842F400629A61FB681B68E5
:105960009A69FB681B6822F480629A61FB681B6875
:105970009969BB681B691A02FB681B680A439A6134
:1059800082E0FB681B68B968184600F061FBFB68A1
:105990001B68DA69FB681B6842F00802DA61FB6881
:1059A0001B68DA69FB681B6822F00402DA61FB6895
:1059B0001B68D969BB681A69FB681B680A43DA610E
:1059C00062E0FB681B68B968184600F0C7FBFB681B
:1059D0001B68DA69FB681B6842F40062DA61FB68E5
:1059E0001B68DA69FB681B6822F48062DA61FB6875
:1059F0001B68D969BB681B691A02FB681B680A43EC
:105A0000DA6141E0FB681B68B968184600F00EFCDB
:105A1000FB681B685A6DFB681B6842F008025A65F8
:105A2000FB681B685A6DFB681B6822F004025A650C
:105A3000FB681B68596DBB681A69FB681B680A43E1
:105A40005A6521E0FB681B68B968184600F050FCF5
:105A5000FB681B685A6DFB681B6842F400625A655C
:105A6000FB681B685A6DFB681B6822F480625A65EC
:105A7000FB681B68596DBB681B691A02FB681B68D1
:105A80000A435A6500E000BFFB68002283F83C200F
:105A9000002318461037BD4680BD00BF80B584B0D6
:105AA00000AF786039607B6893F83C30012B01D1FE
:105AB0000223B7E07B68012283F83C207B68022246
:105AC00083F83D207B681B689B68FB60FA68574B36
:105AD0001340FB60FB6823F47F43FB607B681B681B
